:1000000071C0000081C000007FC000007DC0000002
:100010007BC0000079C0000077C0000075C0000000
:1000200073C0000071C000006FC000006DC0000010
:100030006BC0000069C0000067C0000065C0000020
:1000400063C0000061C000005FC000005DC0000030
:100050005BC0000095C1000057C0000055C0000003
:1000600053C0000051C000004FC000004DC0000050
:100070004BC0000049C0000047C0000045C0000060
:1000800043C0000041C000003FC000003DC0000070
:100090003BC0000039C0000037C0000035C0000080
:1000A00033C0000031C000002FC000002DC0000090
:1000B0002BC0000029C0000027C0000025C00000A0
:1000C00023C0000021C000001FC000001DC00000B0
:1000D0001BC0000019C0000017C0000015C00000C0
:1000E00013C0000011241FBECFEFD1E2DEBFCDBF91
:1000F00000E00CBF22E0A0E0B2E001C01D92A536F6
:10010000B207E1F759D014C27BCF5B9A5C9A08958D
:100110005B985C9808952FB7F894609100027091F5
:10012000010280910202909103022FBF08958F92E5
:100130009F92AF92BF92CF92DF92EF92FF924B01CC
:100140005C01E9DF6B017C01E6DFDC01CB018C198E
:100150009D09AE09BF0988159905AA05BB0520F4BC
:1001600083B7816083BFF0CFFF90EF90DF90CF9097
:10017000BF90AF909F908F9008955F9AD8DF5F985F
:1001800008958AB188698AB91AD045E850E064EFC9
:1001900071E080E090E024D048E850E06CE271E04B
:1001A00080E090E01DC008954AD061157105810579
:1001B000910509F0E2CF0895E4DFF6DFFECF8091EC
:1001C0005D0290915E02A0915F02B0916002809307
:1001D000610290936202A0936302B0936402089557
:1001E000CF92DF92EF92FF920F931F936C01909149
:1001F00004029830E8F48BE0989FF0011124EB5F43
:10020000FD4F0D2C000CEE08FF08C482D582E6825B
:10021000F7828B01770F220B330B0083118322832C
:10022000338381E08087528741879F5F90930402E8
:100230001F910F91FF90EF90DF90CF9008952F9234
:100240003F924F925F926F927F928F929F92AF9266
:10025000BF92CF92DF92EF92FF920F931F93CF93B3
:10026000DF9380915D0290915E02A0915F02B09158
:10027000600240916102509162026091630270914C
:1002800064022C013D01441A550A660A770A8093DC
:10029000610290936202A0936302B0936402C5E08E
:1002A000D2E00DE512E088248A9499249A94AA2435
:1002B000AA94BB24BA94212C312C8885882309F474
:1002C0003EC0CC80DD80EE80FF80C418D508E608F3
:1002D000F708CC82DD82EE82FF821C141D041E040E
:1002E0001F04B4F02114310431F529843A84888143
:1002F0009981AA81BB81C80ED91EEA1EFB1ECC8241
:10030000DD82EE82FF82812C912CA12CB12C17C0B2
:10031000682D792D8A2D9B2D86D04B015C01C7015C
:10032000B60181D0A5019401BBD051D0862E972E65
:10033000A82EB92E04C0812C912CA12CB12C2B9667
:10034000C017D10709F0B9CF2114310411F0F10120
:100350001995682D792D8A2D9B2DDF91CF911F91B5
:100360000F91FF90EF90DF90CF90BF90AF909F9054
:100370008F907F906F905F904F903F902F90089557
:100380001F920F920FB60F9211248F939F93AF93EA
:10039000BF9380EF86BD80915D0290915E02A09137
:1003A0005F02B09160020196A11DB11D80935D02B4
:1003B00090935E02A0935F02B0936002BF91AF91F1
:1003C0009F918F910F900FBE0F901F9018958FD017
:1003D00088F09F5790F0B92F9927B751A0F0D1F02E
:1003E000660F771F881F991F1AF0BA95C9F712C0B8
:1003F000B13081F096D0B1E0089593C0672F782F87
:100400008827B85F39F0B93FCCF386957795679523
:10041000B395D9F73EF490958095709561957F4F8F
:100420008F4F9F4F0895E89409C097FB3EF4909535
:100430008095709561957F4F8F4F9F4F9923A9F0BD
:10044000F92F96E9BB279395F6958795779567954C
:10045000B795F111F8CFFAF4BB0F11F460FF1BC090
:100460006F5F7F4F8F4F9F4F16C0882311F096E923
:1004700011C0772321F09EE8872F762F05C06623D1
:1004800071F096E8862F70E060E02AF09A95660F8A
:10049000771F881FDAF7880F9695879597F9089543
:1004A000990FBB0B550FAA0BE0E8FEEF16161706C7
:1004B000E807F90770F012161306E407F50760F075
:1004C000BA1754F031F42617370748075907A7958C
:1004D0001BF4B901CA01BA2FB6959795089557FD37
:1004E0009058440F551F59F05F3F71F04795880FA2
:1004F00097FB991F61F09F3F79F087950895121639
:1005000013061406551FF2CF4695F1DF08C01616E4
:1005100017061806991FF1CF869571056105089495
:100520000895E894BB2766277727CB0197F90895AC
:04053000F894FFCF6D
:00000001FF
